:0E0000000C9433000C9400000C9400000C943F
:10000E0000000C9400000C9400000C9400000C9462
:10001E0000000C9400000C9400000C9400000C9452
:10002E0000000C9400000C9400000C9460000C94E2
:10003E0000000C9400000C9400000C9400000C9432
:10004E0000000C940000C0F9A4B0999282F8809040
:10005E000A00600154000000F894EE27ECBBF1E0BA
:10006E00FBBFEBBFE5BF8DE0A2E0BB27ED938A950A
:10007E00E9F780E094E0A0E6ED930197E9F7EEE56D
:10008E00F0E085919591009761F0A591B59105905D
:10009E001590BF01F00105900D920197E1F7FB015C
:1000AE00F0CFEFE5EDBFE4E0EEBFC0E6D1E00C949B
:1000BE00B1008A93AA93BA93EA93FA93EFB7EA93AD
:1000CE00E0916C01AAE6B1E0F0E0EE0FFF1FAE0F7B
:1000DE00BF1FE4B1F5B1ED93FC93A0916C01AF5F3E
:1000EE00A0936C01A13018F0E0E0E0936C01E09178
:1000FE006C01E7B98BE18A95F1F7369AE991EFBF7A
:10010E00F991E991B991A99189911895BA93AA9308
:10011E000E941D01AC81BD81EAE0F0E00E941A014F
:10012E009F01AC81BD81EAE0F0E00E9407018F01E2
:10013E009098A0E6B1E0A00FB11F4AD0909A919886
:10014E00A0E6B1E0A20FB31F43D0919A0E94220104
:10015E0026960895E0E0EABBEBBBE7BBE8BBEFEF0A
:10016E00E4BBE5BBE3E0E1BBE2BBE0E0E3BFE2BF43
:10017E00ECBFEFBDEEBDEDBDECBDE7BDE6BDEBBD2D
:10018E00EABDE9BDE8BDE2BDE5BDE4BDE3BDE9BF45
:10019E00E5BFE4BFEAB9E0E8E8B9E0E0E7B9EBEEC5
:1001AE00E6B9E0E0E0BFEDB9E6BF7894E0916A0110
:1001BE00F0916B01A4EFB1E00E94FF00DF01EFEFC1
:1001CE00F3E00E9407013F01D301A0DFEFCFFFCF85
:1001DE00EC91E5BBAAE0B0E00C94F500109639F076
:1001EE0080ED97E00197F1F7A8951197C9F708955B
:1001FE00FA9FF02DEB9FF00DEA9FE02DF10D089583
:10020E000024112490E1AA0FBB1F001C111C0E1A12
:10021E001F0A18F40E0E1F1E01C0A1609A9599F7C1
:10022E00FD01D0010895ECDFFD0108953A932A9364
:10023E001A930A9308953B812A81198108810895A2
:00000001FF
