:080000000C9433000C94600025
:100008000C9400000C9400000C9400000C94000068
:100018000C9400000C9400000C9400000C948800D0
:100028000C9400000C9400000C9400000C94000048
:100038000C9400000C9400000C9400000C94000038
:100048000C9400000C9400000C940000000080C088
:100058000100070054000200600156000000F894F7
:10006800EE27ECBBF1E0FBBFEBBFE5BF8DE0A2E004
:10007800BB27ED938A95E9F780E094E0A0E6ED933D
:100088000197E9F7E8E5F0E085919591009761F02F
:10009800A591B59105901590BF01F00105900D92BD
:1000A8000197E1F7FB01F0CFEFE5EDBFE4E0EEBF2C
:1000B800C0E6D1E00C94B6000A921A92AA93BA93B9
:1000C800EA93FA93EFB7EA93772029F4E2E0E3BFE3
:1000D800E1E07E2E0FC042B6E0E0E2BFA52DB0E021
:1000E800E0E0F1E00E949301DF01E42DF0E0EA0F87
:1000F800FB1F4F015524E991EFBFF991E991B9919F
:10010800A991199009901895EA93EFB75394EFBF06
:10011800E9911895BA93AA931A930A930A811B81B5
:10012800D801E0E1F7E2CDD0E0E1F7E2D1D0E8EEA6
:10013800F3E0C7D0E8EEF3E0CBD0E4E6F0E0C1D0DE
:10014800E4E6F0E0C5D0EAE0F0E0BBD0EAE0F0E0B9
:100158000E94AB018F01A02FA05D74D01981088186
:1001680024960895E0E0EABBEBBBE7BBE8BBE4BB41
:10017800E5BBE1BBE2BBE3BFE2BFECBFEFBDEEBD59
:10018800EDBDECBDE7BDE6BDEBBDEABDE9BDE8BD33
:10019800E2BDE5BDE4BDE3BDE1E0E9BFEBB7E06486
:1001A800EBBFE3E0E5BFE0E0E4BFE0E4EABFE0E0A6
:1001B800EAB9E0E8E8B9E0E0E0BFE6B9EDB9E6BFE2
:1001C800A8E054D07894E5E0EA93A0E024D0D401E4
:1001D800A1DFF9CFFFCFAA93E5B3EF70AE2FE88187
:1001E800E07FEA2BE5BB8DE08A95F1F7AA9A8DE0CE
:1001F8008A95F1F7AA988DE08A95F1F760C0AA93DD
:10020800A881E9DFE881E295E883A881E4DF85E851
:100218008A95F1F754C0AA93E881F0E0E05AFE4FBE
:10022800E081A981AE0FEBDF6980B880229608953E
:10023800A2E053D0ACE0E3DFA1E04FD0E0E0BE2E77
:100248006E2E0895AA93A881AA3011F06A1440F07E
:10025800E0E0EA93B394AB2DDEDFA881AA3079F110
:100268006394A89AA881CBDFA89829C0AA93E4B37D
:10027800E06FE4BBA29AA09AA19AAA98A898A99814
:10028800A880E881E058E0936201E881E054E093B7
:100298006301A4E1B0E00E947D0124D023D022D0E4
:1002A800A0E299DF88EC90E00197F1F7A8E2A7DFD8
:1002B800A4E0A5DFA5E8A3DFA6E0A1DFB9DF2196CA
:1002C80008950E949801E05DAE2FBCDFD801089523
:1002D8000E94AB018F01D801089591DFA3E0B0E03F
:1002E8000C947D01A0E377DF88EC90E00197F1F7AB
:1002F8000895109639F080ED97E00197F1F7A895E9
:100308001197C9F70895F195E195F0400895FA9F7E
:10031800F02DEB9FF00DEA9FE02DF10D08951AD016
:10032800F6DF0EF4F0DF08950024112490E1AA0FFF
:10033800BB1F001C111C0E1A1F0A18F40E0E1F1EDC
:1003480001C0A1609A9599F7FD01D0010895ECDFED
:10035800FD010895E894F7FF02C0D5DF6894B7FF60
:1003680006C0A095B095119600F8039400FA089578
:00000001FF
