:080000000C9434000C94000084
:100008000C9400000C9400000C9400000C94000068
:100018000C9400000C9400000C9400000C94000058
:100028000C9400000C9400000C9400000C94000048
:100038000C9461000C9400000C9400000C940000D7
:100048000C9400000C9400000C94000054656D7032
:100058003A200043000080C0020063015E000000F7
:10006800F894EE27ECBBF1E0FBBFEBBFE5BF8DE0FA
:10007800A2E0BB27ED938A95E9F780E094E0A0E63B
:10008800ED930197E9F7E0E6F0E085919591009707
:1000980061F0A591B59105901590BF01F00105900B
:1000A8000D920197E1F7FB01F0CFEFE5EDBFE4E03A
:1000B800EEBFC0E6D1E00C94A9008A93AA93BA9344
:1000C800EA93FA93EFB7EA93E0916201A0E6B1E010
:1000D800F0E0EE0FFF1FAE0FBF1FE4B1F5B1ED93D7
:1000E800FC93A0916201AF5FA0936201A13018F068
:1000F800E0E0E0936201E0916201E7B98BE18A9563
:10010800F1F7369AE991EFBFF991E991B991A9917F
:1001180089911895BA93AA931A930A930A811B8115
:10012800D801EAE0F0E00E94EE01E05DAE2FA2D037
:10013800D801EAE0F0E00E941D028F01A02FA05D27
:1001480099D01981088124960895E0E0EABBEBBBB9
:10015800E7BBE8BBE4BBE5BBE3E0E1BBE2BBE0E057
:10016800E3BFE2BFECBFEFBDEEBDEDBDECBDE7BD4B
:10017800E6BDEBBDEABDE9BDE8BDE2BDE5BDE4BD58
:10018800E3BDE9BFE5BFE4BFEAB9E0E8E8B9E0E00C
:10019800E7B9EBEEE6B9E0E0E0BFEDB9E6BFA0E114
:1001A80091D07894E0E0B9D0A4E5B0E078D0E091BF
:1001B8006001F091610166277727A4EFB1E080E044
:1001C80090E00E94D601DF01CB01EFEFF3E060E0A1
:1001D80070E00E9418022F01E6E09FD0D2019ADF5A
:1001E800E8E09BD0AFED46D0ABE5B0E058D0E4E115
:1001F800F0E0E415F5051CF09098919A02C0909AE9
:100208009198D0CFFFCFAA93E2B3EF70AE2FE881D9
:10021800E07FEA2BE2BB8DE08A95F1F7AA9A8DE0A0
:100228008A95F1F7AA988DE08A95F1F774C0AA9398
:10023800A881E9DFE881E295E883A881E4DF85E821
:100248008A95F1F768C0AA93E881F0E0ED59FE4F6E
:10025800E081A981AE0FEBDF79806880229608954E
:10026800A2E05ED0ACE0E3DFA1E05AD0E0E06E2E81
:100278007E2E0895AA93A881AA3011F0791448F027
:10028800E0E0EA936394A62DDEDFA881AA3009F4A2
:1002980042C07394A89AA881CADFA8983CC0BA93B0
:1002A800AA931A93E981FA813196E983FA833197FF
:1002B800E4911E2FE03019F0A12FDCDFF3CF188175
:1002C80023960895AA93E1B3E06FE1BBA29AA09A9E
:1002D800A19AAA98A898A9989880E881E058E093EC
:1002E8006501E881E054E0936601A4E1B0E00E9472
:1002F800A0011BD01AD019D0A0E285DF88EC90E0CD
:100308000197F1F7A8E293DFA4E091DFA5E88FDF7A
:10031800A6E08DDFA5DF21960895EA93A0E093CFAC
:1003280086DFA3E0B0E00C94A001A0E36CDF88ECCA
:1003380090E00197F1F70895109639F080ED97E075
:100348000197F1F7A8951197C9F70895F195E195E7
:10035800F0400895F09560957095E195FF4F6F4FC7
:100368007F4F08957A9F702D6B9F700DF89F700DC9
:10037800E99F700D6A9F602D710DFB9F600D711DC7
:10038800E89F600D711D8827FA9FF02D610D781F79
:10039800EB9FF00D611D781FEA9FE02DF10D681F9E
:1003A800781F089562D0DEDF0EF4D4DF08950024AC
:1003B800112490E1AA0FBB1F001C111C0E1A1F0A62
:1003C80018F40E0E1F1E01C0A1609A9599F7FD0141
:1003D800D00108953CD0EBDF0EF4B8DF08953F93C9
:1003E8004F935F93002411244427552730E2AA0F26
:1003F800BB1F881F991F001C111C441F551F0E1A74
:100408001F0A460B570B28F40E0E1F1E461F571FB8
:1004180001C0A1603A9559F7FD01BC01D001CA019C
:100428005F914F913F91089520D0D9DF0EF492DF6C
:100438000895E894B7FF04C0A095B0951196689404
:10044800F7FD84DFB4DFFD010EF480DF0895E89442
:10045800F7FF02C07BDF6894B7FF06C0A095B09590
:10046800119600F8039400FA0895E89477FF02C003
:1004780071DF689497FF0BC00024A095B095809514
:1004880090951196801D901D00F8039400FA089528
:00000001FF
