:0E0000000C9447000C9400000C9400000C942B
:10000E0000000C9400000C9400000C9400000C9462
:10001E0000000C9400000C9400000C9400000C9452
:10002E0000000C9400000C9400000C9400000C9442
:10003E0000000C9400000C9400000C9400000C9432
:10004E0000000C9400000000000000001400C0F935
:10005E00A4B0999282F8809048756D69646974793C
:10006E003A200054656D703A200080C008000400EC
:10007E0054000A0060015C0002006A017800000072
:10008E00F894EE27ECBBF1E0FBBFEBBFE5BF8DE0D4
:10009E00A2E0BB27ED938A95E9F780E094E0A0E615
:1000AE00ED930197E9F7EAE7F0E0859195910097D6
:1000BE0061F0A591B59105901590BF01F0010590E5
:1000CE000D920197E1F7FB01F0CFEFE5EDBFE4E014
:1000DE00EEBFC0E6D1E00C947501D09AD898A2E19B
:1000EE00B0E00E946702D89A0895D098C89B07C0C6
:1000FE0083E08A95F1F77394E0E5E715B8F7772476
:10010E00C89903C00E944502D8F77724C89B03C044
:10011E000E944502D8F70895E8E05E1600F5539464
:10012E00C89BFECF80E58A95F1F7C89B05C0E42DEC
:10013E00EE0FE1604E2E01C0440C88249924E8EEA7
:10014E00F3E08E169F0614F4C89901C007C08BE128
:10015E008A95F1F7F40131964F01F1CFDDCF552499
:10016E00E42D0895BA93AA930E948D02B6DFBDDFE7
:10017E00D3DFAC81BD81EC93CFDF1E2FCDDFAE81FF
:10018E00BF81EC93C9DF0E2FC7DF3E2FAC81BD813F
:10019E00AC91BB27E12FF0E0EA0FFB1F0F01AE8100
:1001AE00BF81EC91F0E0D001AE0FBF1FEE27A00F84
:1001BE00BE1FE32FF0E00E9471020E949202289669
:1001CE000895BA93AA931A930A930A811B81D801B0
:1001DE00EAE0F0E00E947702E05DAE2FF9D0D801A0
:1001EE00EAE0F0E00E948A028F01A02FA05DF0D01D
:1001FE001981088124960895AA93E881A981AE17E2
:10020E0018F4C098C19A0DC0E881A981EA1719F4B3
:10021E00C09AC19A06C0E881A981EA1710F4C09A63
:10022E00C198CAC0AA93A881A03510F4C49801C081
:10023E00C49A0C944302BA93AA930E948D02AC8185
:10024E00BD81EAE0F0E00E948A029F01AC81BD818F
:10025E00EAE0F0E00E9477028F01A898A0E6B1E0F4
:10026E00A00FB11F12D1A89AA998A0E6B1E0A20FD3
:10027E00B31F0BD1A99A0E94920226960895AA93B3
:10028E00E0E0EA93A0E08DD0A6E6B0E004D1ECE089
:10029E00EA93A0E086D0A5E29BD0EEC0AA93E0E060
:1002AE00EA93A1E07ED0A1E7B0E0F5D0E8E0EA93D2
:1002BE00A1E077D0AFED8CD0A3E48AD0DDC0B299A7
:1002CE0005C0A394B29902C0EBD0FCCFB39905C080
:1002DE00AA94B39902C0E4D0FCCF0895E0E0EABB43
:1002EE00EBBBE3E1E7BBEFE1E8BBEFEFE4BBE3E041
:1002FE00E5BBEFEFE1BBE2BBE0E0E3BFE2BFECBF8B
:10030E00EFBDEEBDEDBDECBDE7BDE6BDEBBDEABD9F
:10031E00E9BDE8BDE2BDE5BDE4BDE3BDE9BFE5BFB6
:10032E00E4BFE0E8EAB9E8B9EBEEE6B9E0E0E0BF39
:10033E00EDB9E6BFA0E176D07894B2D0C0DFEBE0A5
:10034E00F0E0FA93EA93A6E0B0E00CDFA62D97DF7B
:10035E00A62D68DFAB2DA2DFBA92AA2D4DDFEDCF11
:10036E00FFCFAA93E5B3EF70AE2FE881E07FEA2BC3
:10037E00E5BB8DE08A95F1F7AB9A8DE08A95F1F7A2
:10038E00AB988DE08A95F1F777C0AA93A881E9DF43
:10039E00E881E295E883A881E4DF85E88A95F1F7A4
:1003AE006BC0AA93E881F0E0E659FE4FE081A98187
:1003BE00AE0FEBDFD980C88022960895A2E074D0EC
:1003CE00ACE0E3DFA1E070D0E0E0CE2EDE2E0895AB
:1003DE00AA93A881AA3021F0E0916E01DE1648F0B2
:1003EE00E0E0EA93C394AC2DDCDFA881AA3009F4D7
:1003FE0043C0D394AA9AA881C8DFAA983DC0BA93E5
:10040E00AA931A93E981FA813196E983FA83319797
:10041E00E4911E2FE03019F0A12FDADFF3CF18810F
:10042E0023960895AA93E4B3E06FE4BBA39AA29A2D
:10043E00A19AAB98AA98A998E881E0936E01E0582A
:10044E00E0936C01E881E054E0936D01A4E1B0E02B
:10045E000E9467022ED02DD02CD0A0E282DF88EC35
:10046E0090E00197F1F7A8E290DFA4E08EDFA5E817
:10047E008CDFA6E08ADFA2DF219608958BE68A95AF
:10048E00F1F77394E2E0E7150895EC91E2BBAAE070
:10049E00B0E00C946702B3DFA881BB270C94E80090
:1004AE00AA2DBB270C94220170DFA3E0B0E00C94C0
:1004BE006702A0E356DF88EC90E00197F1F708950C
:1004CE00109639F080ED97E00197F1F7A895119706
:1004DE00C9F70895EA17FB07E1E009F0EE27089542
:1004EE000024112490E1AA0FBB1F001C111C0E1A30
:1004FE001F0A18F40E0E1F1E01C0A1609A9599F7DF
:10050E00FD01D0010895ECDFFD0108953A932A9381
:10051E001A930A9308953B812A81198108810895BF
:00000001FF
