:0C0000000C945B000C9400000C940000B9
:10000C000C9400000C9400000C9400000C94000064
:10001C000C9400000C9400000C9400000C94000054
:10002C000C9400000C9400000C9400000C94000044
:10003C000C9400000C9400000C9400000C94000034
:10004C000C9400000C940000000000000000140050
:10005C00C0F9A4B0999282F8809048756D69646972
:10006C0074793A200054656D703A200074656D7097
:10007C0020746F6F20686967680074656D702074F8
:10008C006F6F206C6F77000080C008000400540074
:10009C000A007B015C000E00600178000D006E010F
:1000AC0086000200850194000000F894EE27ECBB5A
:1000BC00F1E0FBBFEBBFE5BF8DE0A2E0BB27ED930A
:1000CC008A95E9F780E094E0A0E6ED930197E9F7D3
:1000DC00E6E9F0E085919591009761F0A591B591D5
:1000EC0005901590BF01F00105900D920197E1F775
:1000FC00FB01F0CFEFE5EDBFE4E0EEBFC0E6D1E0F1
:10010C000C94A601D09AD898A2E1B0E00E94AE025D
:10011C00D89A0895D098C89B07C083E08A95F1F7C8
:10012C007394E0E5E715B8F77724C89903C00E94EB
:10013C008802D8F77724C89B03C00E948802D8F79E
:10014C000895E8E05E1600F55394C89BFECF80E559
:10015C008A95F1F7C89B05C0E42DEE0FE1604E2E99
:10016C0001C0440C88249924E8EEF3E08E169F0617
:10017C0014F4C89901C007C08BE18A95F1F7F4011A
:10018C0031964F01F1CFDDCF5524E42D0895BA936C
:10019C00AA930E94D402B6DFBDDFD3DFAC81BD8150
:1001AC00EC93CFDF1E2FCDDFAE81BF81EC93C9DF87
:1001BC000E2FC7DF3E2FAC81BD81AC91BB27E12F49
:1001CC00F0E0EA0FFB1F0F01AE81BF81EC91F0E074
:1001DC00D001AE0FBF1FEE27A00FBE1FE32FF0E024
:1001EC000E94B8020E94D90228960895BA93AA9345
:1001FC001A930A930A811B81D801EAE0F0E00E946D
:10020C00BE02E05DAE2F19D1D801EAE0F0E00E9409
:10021C00D1028F01A02FA05D10D1198108812496E5
:10022C000895AA93E881A981AE1718F4C098C19AD1
:10023C000DC0E881A981EA1719F4C09AC19A06C0C9
:10024C00E881A981EA1710F4C09AC198EAC0E8E2E3
:10025C00BE1610F0C59807C0EAE0EB1518F0C59A69
:10026C00C69802C0C59AC69A0895AA93A881A035CB
:10027C0010F4C49801C0C49A0C948602BA93AA9341
:10028C000E94D402AC81BD81EAE0F0E00E94D10270
:10029C009F01AC81BD81EAE0F0E00E94BE028F01BB
:1002AC00A898ABE7B1E0A00FB11F33D1A89AA998D9
:1002BC00ABE7B1E0A20FB31F2CD1A99A0E94D902CF
:1002CC0026960895AA932BD1A6E6B0E02CD1ECE0AB
:1002DC00EA93A0E09BD0A5E2B0D012C1AA93E0E0D3
:1002EC00EA93A1E093D0A1E7B0E01DD1E8E0EA9356
:1002FC00A1E08CD0AFEDA1D0A3E49FD001C1AA9313
:10030C00A881A83228F08FD00AD1A0E6B1E0ACD0F9
:10031C00A881AB3028F487D002D1AEE6B1E0A4D0EE
:10032C00EFC0B29905C0A394B29902C001D1FCCF21
:10033C00B39905C0AA94B39902C0FAD0FCCF089522
:10034C00E0E0EABBEBBBE3EFE7BBEFE7E8BBEFEFCB
:10035C00E4BBE3E0E5BBEFEFE1BBE2BBE0E0E3BF16
:10036C00E2BFECBFEFBDEEBDEDBDECBDE7BDE6BD44
:10037C00EBBDEABDE9BDE8BDE2BDE5BDE4BDE3BD55
:10038C00E9BFE5BFE4BFE0E8EAB9E8B9EBEEE6B9EE
:10039C00E0E0E0BFEDB9E6BFA0E188D07894C8D02A
:1003AC00C0DFEBE0F0E0FA93EA93A6E0B0E0EFDE1A
:1003BC00A62D88DFA62D59DFAB2D90DFBA92AA2D82
:1003CC0030DF45DFAB2D9BDFEACFFFCFAA93E5B340
:1003DC00EF70AE2FE881E07FEA2BE5BB8DE08A95CC
:1003EC00F1F7AB9A8DE08A95F1F7AB988DE08A9591
:1003FC00F1F786C0AA93A881E9DFE881E295E8834A
:10040C00A881E4DF85E88A95F1F77AC0AA93E881A0
:10041C00F0E0EB57FE4FE081A981AE0FEBDFD98006
:10042C00C88022960895A2E087D0ACE0E3DFA1E07B
:10043C0083D0E0E0CE2EDE2E0895AA93A881AA30B8
:10044C0021F0E0918901DE1648F0E0E0EA93C394D4
:10045C00AC2DDCDFA881AA3009F452C0D394AA9A3F
:10046C00A881C8DFAA984CC0BA93AA931A93A98101
:10047C00BA81ED91A983BA831E2FE03019F0A12F18
:10048C00DCDFF5CF10C0BA93AA931A93E981FA81F5
:10049C003196E983FA833197E4911E2FE03019F0FD
:1004AC00A12FCBDFF3CF188123960895AA93E4B341
:1004BC00E06FE4BBA39AA29AA19AAB98AA98A998C8
:1004CC00E881E0938901E058E0938701E881E054EA
:1004DC00E0938801A4E1B0E00E94AE0232D031D0AA
:1004EC0030D0A0E273DF88EC90E00197F1F7A8E23E
:1004FC0081DFA4E07FDFA5E87DDFA6E07BDF93DF73
:10050C00219608958BE68A95F1F77394E2E0E7154E
:10051C000895EC91E2BBAAE0B0E00C94AE02E0E0EE
:10052C00EA93A0E073CFAFDFA881BB270C94FC004B
:10053C00AA2DBB270C9444015DDFA3E0B0E00C9422
:10054C00AE02A0E343DF88EC90E00197F1F7089549
:10055C00109639F080ED97E00197F1F7A895119777
:10056C00C9F70895EA17FB07E1E009F0EE270895B3
:10057C000024112490E1AA0FBB1F001C111C0E1AA1
:10058C001F0A18F40E0E1F1E01C0A1609A9599F750
:10059C00FD01D0010895ECDFFD0108953A932A93F3
:1005AC001A930A9308953B812A8119810881089531
:00000001FF
