:060000000C943F000C947B
:1000060000000C9400000C9400000C9400000C946A
:1000160000000C9400000C9400000C9400000C945A
:1000260000000C9400000C9400000C9400000C944A
:1000360000000C9400000C9400000C9400000C943A
:1000460000000C9400000C9400000C9400000000CA
:1000560000000000000048756D69646974793A20F3
:100066000054656D703A200080C0080004005400FA
:10007600020060016E000000F894EE27ECBBF1E090
:10008600FBBFEBBFE5BF8DE0A2E0BB27ED938A95F2
:10009600E9F780E094E0A0E6ED930197E9F7E0E761
:1000A600F0E085919591009761F0A591B591059045
:1000B6001590BF01F00105900D920197E1F7FB0144
:1000C600F0CFEFE5EDBFE4E0EEBFC0E6D1E00C9483
:1000D6000501D09AD898A2E1B0E00E94FB01D89A17
:1000E6000895D098C89B07C083E08A95F1F773946A
:1000F600E0E5E715B8F77724C89903C00E94E80140
:10010600D8F77724C89B03C00E94E801D8F7089562
:10011600E8E05E1600F55394C89BFECF80E58A950D
:10012600F1F7C89B05C0E42DEE0FE1604E2E01C02D
:10013600440C88249924E8EEF3E08E169F0614F406
:10014600C89901C007C08BE18A95F1F7F401319691
:100156004F01F1CFDDCF5524E42D0895BA93AA932C
:100166000E942102B6DFBDDFD3DFAC81BD81EC93F7
:10017600CFDF1E2FCDDFAE81BF81EC93C9DF0E2FFF
:10018600C7DF3E2FAC81BD81AC91BB27E12FF0E0EC
:10019600EA0FFB1F0F01AE81BF81EC91F0E0D001A9
:1001A600AE0FBF1FEE27A00FBE1FE32FF0E00E9489
:1001B60005020E94260228960895BA93AA931A93D6
:1001C6000A930A811B81D801EAE0F0E00E940B0243
:1001D600E05DAE2FA7D0D801EAE0F0E00E941E0253
:1001E6008F01A02FA05D9ED01981088124960895C5
:1001F600AA93A881AF3118F4C098C19A02C0C09AD8
:10020600C198E1C0E0E0EABBEBBBE3E0E7BBE8BBDB
:10021600EFEFE4BBE0E0E5BBE1BBE2BBE3BFE2BF7F
:10022600ECBFEFBDEEBDEDBDECBDE7BDE6BDEBBD84
:10023600EABDE9BDE8BDE2BDE5BDE4BDE3BDE9BF9C
:10024600E5BFE4BFE0E8EAB9E8B9EBEEE6B9E0E01D
:10025600E0BFEDB9E6BFA0E18DD07894EBE0F0E029
:10026600FA93EA93A6E0B0E079DFE0E0EA93A0E053
:1002760042D0ACE5B0E06BD0A62DBB279EDFECE00C
:10028600EA93A0E038D0A5E24DD0E0E0EA93A1E001
:1002960032D0A7E6B0E05BD0AB2DBB278EDFE8E01F
:1002A600EA93A1E028D0AFED3DD0A3E43BD0AB2D3F
:1002B6009FDFD4CFFFCFAA93E5B3EF70AE2FE881CF
:1002C600E07FEA2BE5BB8DE08A95F1F7AB9A8DE0EE
:1002D6008A95F1F7AB988DE08A95F1F774C0AA93E9
:1002E600A881E9DFE881E295E883A881E4DF85E873
:1002F6008A95F1F768C0AA93E881F0E0E05AFE4FCC
:10030600E081A981AE0FEBDFA980D88022960895FF
:10031600A2E062D0ACE0E3DFA1E05ED0E0E0DE2E5A
:10032600AE2E0895AA93A881AA3011F0AC1448F015
:10033600E0E0EA93D394AD2DDEDFA881AA3009F47C
:1003460042C0A394AA9AA881CADFAA983CC0BA93CD
:10035600AA931A93E981FA813196E983FA83319750
:10036600E4911E2FE03019F0A12FDCDFF3CF1881C6
:1003760023960895AA93E4B3E06FE4BBA39AA29AE6
:10038600A19AAB98AA98A998C880E881E058E0930A
:100396006201E881E054E0936301A4E1B0E00E94C9
:1003A600FB011FD01ED01DD0A0E285DF88EC90E0B7
:1003B6000197F1F7A8E293DFA4E091DFA5E88FDFCC
:1003C600A6E08DDFA5DF219608958BE68A95F1F7E5
:1003D6007394E2E0E715089582DFA3E0B0E00C94A1
:1003E600FB01A0E368DF88EC90E00197F1F7089540
:1003F600109639F080ED97E00197F1F7A8951197DF
:10040600C9F70895EA17FB07E1E009F0EE2708951A
:100416000024112490E1AA0FBB1F001C111C0E1A08
:100426001F0A18F40E0E1F1E01C0A1609A9599F7B7
:10043600FD01D0010895ECDFFD0108953A932A935A
:100446001A930A9308953B812A8119810881089598
:00000001FF
