:080000000C943B000C9400007D
:100008000C9400000C9400000C9400000C94000068
:100018000C9400000C9400000C9400000C94000058
:100028000C9400000C9400000C9400000C94000048
:100038000C94AA000C9400000C9400000C9400008E
:100048000C9400000C9400000C940000C0F9A4B0BB
:10005800999282F880904079243019120278001021
:100068000A00600154000A006A015E000000F8946A
:10007800EE27ECBBF1E0FBBFEBBFE5BF8DE0A2E0F4
:10008800BB27ED938A95E9F780E094E0A0E6ED932D
:100098000197E9F7E8E6F0E085919591009761F01E
:1000A800A591B59105901590BF01F00105900D92AD
:1000B8000197E1F7FB01F0CFEFE5EDBFE4E0EEBF1C
:1000C800C0E6D1E00C94D000BA93AA9324970E947A
:1000D80052010885198530E03430E0F4E32FF0E070
:1000E800A3E0B0E00E944B01EA1BFB0BDE01149673
:1000F800EA0FFB1FBF01D801EAE0F0E00E943A01D5
:10010800DB01EC93D801EAE0F0E00E9422018F01C4
:100118003F5FE2CFAC98EC817AD0AC9AAD98ED8194
:1001280076D0AD9AAE98EE81F0E0E659FE4FE081C8
:10013800E8BBA5E0B0E00E941401AE9AAF98EF8149
:1001480066D0AF9A0E9457012A9608958A93AA9377
:10015800BA93EA93EFB7EA93A0917501B0E0AC586F
:10016800BE4FE5B1EC93A0917501AF5FA093750107
:10017800A13018F0E0E0E0937501E0917501E05ED0
:10018800E7B98BE18A95F1F7369AE991EFBFE991E2
:10019800B991A99189911895E0E0EABBEBBBEFEF23
:1001A800E7BBE8BBE4BBE5BBE0E0E1BBE2BBE3BF28
:1001B800E2BFECBFEFBDEEBDEDBDECBDE7BDE6BDFA
:1001C800EBBDEABDE9BDE8BDE2BDE5BDE4BDE3BD0B
:1001D800E9BFE5BFE4BFEAB9E0E8E8B9E0E2E7B9BA
:1001E800EBEEE6B9E0E0E0BFEDB9E6BF7894E09168
:1001F8007401A2E3EA9FF001DF01EFEFF0E00E9453
:1002080035015E2EA52DBB275FDFF1CFFFCFF0E0D4
:10021800E05AFE4FE081E8BBA5E0B0E00C94140181
:10022800109639F080ED97E00197F1F7A8951197AE
:10023800C9F70895F195E195F04008950024112437
:1002480090E1AA0FBB1F001C111C0E1A1F0A18F4FC
:100258000E0E1F1E01C0A1609A9599F7FD01D001ED
:10026800089507D0EBDF0EF4E5DF0895E7DFFD0121
:100278000895E894F7FF02C0DDDF6894B7FF06C071
:10028800A095B095119600F8039400FA08951B2ED6
:10029800BF2FF12D1A2EAE2FE12D08953A932A93F0
:1002A8001A930A9308953B812A8119810881089538
:00000001FF
