:100000000C943B000C9400000C9400000C94000035
:100010000C9400000C9400000C9400000C94000060
:100020000C9400000C9400000C9400000C94000050
:100030000C9400000C9400000C948D000C940000B3
:100040000C9400000C9400000C9400000C94000030
:100050000C940000C0F9A4B0999282F88090407985
:1000600024301912027800100A00600154000A00BE
:100070006A015E000000F894EE27ECBBF1E0FBBFE4
:10008000EBBFE5BF8DE0A2E0BB27ED938A95E9F7D2
:1000900080E094E0A0E6ED930197E9F7E8E6F0E070
:1000A00085919591009761F0A591B5910590159076
:1000B000BF01F00105900D920197E1F7FB01F0CF30
:1000C000EFE5EDBFE4E0EEBFC0E6D1E00C94B30095
:1000D000BA93AA931A930A93AA81BB81EAE0F0E04B
:1000E0000E9445010E2FAA81BB81EAE0F0E00E9448
:1000F0000D011E2FAC98F0E0E659FE4F76D0AC9A79
:10010000AD98E02FF0E0E05AFE4F6FD0AD9AAE9A76
:10011000AF9A19810881249608958A93AA93BA9375
:10012000EA93EFB7EA93A0917501B0E0AC58BE4FE7
:10013000E5B1EC93A0917501AF5FA0937501A1307B
:1001400018F0E0E0E0937501E0917501E05EE7B939
:100150008BE18A95F1F7369AE991EFBFE991B99170
:10016000A99189911895E0E0EABBEBBBEFEFE7BB03
:10017000E8BBE4BBE5BBE0E0E1BBE2BBE3BFE2BF61
:10018000ECBFEFBDEEBDEDBDECBDE7BDE6BDEBBD2B
:10019000EABDE9BDE8BDE2BDE5BDE4BDE3BDE9BF43
:1001A000E5BFE4BFEAB9E0E8E8B9E0E2E7B9EBEEC1
:1001B000E6B9E0E0E0BFEDB9E6BF7894E091740104
:1001C000FF2766277727A2E3B0E00E940501DF0141
:1001D000CB01EFEFF0E060E070E00E9420015E2EC6
:1001E000A52DBB2775DFEACFFFCFE081E8BBAAE0F2
:1001F000B0E00C94FB00109639F080ED97E0019789
:10020000F1F7A8951197C9F70895FA9FF02DEB9F84
:10021000F00DEA9FE02DF10D08950024112490E1E6
:10022000AA0FBB1F001C111C0E1A1F0A18F40E0E79
:100230001F1E01C0A1609A9599F7FD01D001089594
:100240003F934F935F93002411244427552730E2B6
:10025000AA0FBB1F881F991F001C111C441F551F8C
:100260000E1A1F0A460B570B28F40E0E1F1E461FB0
:10027000571F01C0A1603A9559F7FD01BC01D0019B
:10028000CA015F914F913F910895C7DFFD01089525
:00000001FF
