:020000000C945E
:1000020033000C9400000C9400000C9400000C943B
:1000120000000C9400000C9400000C9400000C945E
:1000220000000C9400000C9400000C9400000C944E
:1000320000000C9400000C9400000C9400000C943E
:1000420000000C9400000C9400000C9400000C942E
:100052000000C0F9A4B0999282F880900A00600171
:1000620054000000F894EE27ECBBF1E0FBBFEBBFBD
:10007200E5BF8DE0A2E0BB27ED938A95E9F780E02A
:1000820094E0A0E6ED930197E9F7EEE5F0E08591C3
:100092009591009761F0A591B59105901590BF01DA
:1000A200F00105900D920197E1F7FB01F0CFEFE52A
:1000B200EDBFE4E0EEBFC0E6D1E00C949A00BA9343
:1000C200AA9324970E94F7000885198530E03430FE
:1000D200E0F4E32FF0E0A3E0B0E00E94F000EA1BBE
:1000E200FB0BDE011496EA0FFB1FBF01D801EAE009
:1000F200F0E00E94ED00DB01EC93D801EAE0F0E0D1
:100102000E94DA008F013F5FE2CFAC98EC813ED0D3
:10011200AC9AAD98ED813AD0AD9AAE98EE8136D0D8
:10012200AE9AAF98EF8132D0AF9A0E94FC002A9625
:100132000895E0E0EABBEBBBEFEFE7BBE8BBE0EF23
:10014200E4BBE5BBE0E0E1BBE2BBE3BFE2BFECBF87
:10015200EFBDEEBDEDBDECBDE7BDE6BDEBBDEABD5D
:10016200E9BDE8BDE2BDE5BDE4BDE3BDE9BFE5BF74
:10017200E4BFEAB9E0E8E8B9E0E0E0BFE6B9EDB92A
:10018200E6BFA9ECB7E09BDFFCCFFFCFF0E0E05A7F
:10019200FE4FE081E8BBA5E0B0E00C94D0001096E1
:1001A20039F080ED97E00197F1F7A8951197C9F71B
:1001B20008950024112490E1AA0FBB1F001C111CFA
:1001C2000E1A1F0A18F40E0E1F1E01C0A1609A9586
:1001D20099F7FD01D0010895ECDFFD0108951B2E72
:1001E200BF2FF12D1A2EAE2FE12D08953A932A93A7
:1001F2001A930A9308953B812A81198108810895EF
:00000001FF
