:080000000C9433000C94000085
:100008000C9400000C9400000C9400000C94000068
:100018000C9400000C9400000C9400000C94000058
:100028000C9400000C9400000C9400000C94000048
:100038000C9400000C9400000C9400000C94000038
:100048000C9400000C9400000C940000C0F9A4B0BB
:10005800999282F880900A00600154000000F89498
:10006800EE27ECBBF1E0FBBFEBBFE5BF8DE0A2E004
:10007800BB27ED938A95E9F780E094E0A0E6ED933D
:100088000197E9F7EEE5F0E085919591009761F029
:10009800A591B59105901590BF01F00105900D92BD
:1000A8000197E1F7FB01F0CFEFE5EDBFE4E0EEBF2C
:1000B800C0E6D1E00C949A00BA93AA9324970E94C0
:1000C80012010885198530E03430E0F4E32FF0E0C0
:1000D800A3E0B0E00E940B01EA1BFB0BDE011496C3
:1000E800EA0FFB1FBF01D801EAE0F0E00E94080117
:1000F800DB01EC93D801EAE0F0E00E94F5008F0103
:100108003F5FE2CFAC98EC8151D0AC9AAD98ED81CD
:100118004DD0AD9AAE98EE8149D0AE9AAF98EF81A6
:1001280045D0AF9A0E9417012A960895E0E0EABBED
:10013800EBBBEFEFE7BBE8BBE0EFE4BBE5BBE0E020
:10014800E1BBE3E0E2BBE0E0E3BFE2BFECBFEFBD51
:10015800EEBDEDBDECBDE7BDE6BDEBBDEABDE9BD5D
:10016800E8BDE2BDE5BDE4BDE3BDE9BFE5BFE4BF71
:10017800EAB9E0E8E8B9E0E0E0BFE6B9EDB9E6BF22
:10018800D2019ADF809907C01AD028F4F20131967B
:100198002F0166247724819907C011D028F4F20131
:1001A80031972F0166247724EBCFFFCFF0E0E05A98
:1001B800FE4FE081E8BBA5E0B0E00C94EB00F30152
:1001C80031963F01E9E1F0E0E615F705089510964C
:1001D80039F080ED97E00197F1F7A8951197C9F7E5
:1001E80008950024112490E1AA0FBB1F001C111CC4
:1001F8000E1A1F0A18F40E0E1F1E01C0A1609A9550
:1002080099F7FD01D0010895ECDFFD0108951B2E3B
:10021800BF2FF12D1A2EAE2FE12D08953A932A9370
:100228001A930A9308953B812A81198108810895B8
:00000001FF
