:100000000C9432000C9400000C9400000C9400003E
:100010000C9400000C9400000C9400000C94000060
:100020000C9400000C9400000C9400000C94000050
:100030000C9400000C9400000C945F000C940000E1
:100040000C9400000C9400000C9400000C94000030
:100050000C94000068656C6C6F0080C00200630146
:100060005A000000F894EE27ECBBF1E0FBBFEBBFB9
:10007000E5BF8DE0A2E0BB27ED938A95E9F780E02C
:1000800094E0A0E6ED930197E9F7ECE5F0E08591C7
:100090009591009761F0A591B59105901590BF01DC
:1000A000F00105900D920197E1F7FB01F0CFEFE52C
:1000B000EDBFE4E0EEBFC0E6D1E00C948C008A9383
:1000C000AA93BA93EA93FA93EFB7EA93E0916201A5
:1000D000A0E6B1E0F0E0EE0FFF1FAE0FBF1FE4B1EE
:1000E000F5B1ED93FC93A0916201AF5FA093620123
:1000F000A13018F0E0E0E0936201E0916201E7B91D
:100100008BE18A95F1F7369AE991EFBFF991E99180
:10011000B991A99189911895E0E0EABBEBBBE7BBE7
:10012000E8BBE4BBE5BBE1BBE2BBE3BFE2BFECBFC6
:10013000EFBDEEBDEDBDECBDE7BDE6BDEBBDEABD7F
:10014000E9BDE8BDE2BDE5BDE4BDE3BDE9BFE5BF96
:10015000E4BFEAB9E0E8E8B9E0E0E7B9EBEEE6B918
:10016000E0E0E0BFEDB9E6BFA0E169D07894E1E05E
:10017000EA93A0E025D0A4E5B0E04ED0F8CFFFCFC1
:10018000AA93E5B3EF70AE2FE881E07FEA2BE5BBE1
:100190008DE08A95F1F7AA9A8DE08A95F1F7AA98F1
:1001A0008DE08A95F1F774C0AA93A881E9DFE88110
:1001B000E295E883A881E4DF85E88A95F1F768C0D5
:1001C000AA93E881F0E0ED59FE4FE081A981AE0FDE
:1001D000EBDF5980488022960895A2E05BD0ACE026
:1001E000E3DFA1E057D0E0E04E2E5E2E0895AA9303
:1001F000A881AA3011F0571448F0E0E0EA93439444
:10020000A42DDEDFA881AA3009F442C05394A89A35
:10021000A881CADFA8983CC0BA93AA931A93E9812F
:10022000FA813196E983FA833197E4911E2FE03009
:1002300019F0A12FDCDFF3CF188123960895AA933C
:10024000E4B3E06FE4BBA29AA09AA19AAA98A898F6
:10025000A9987880E881E058E0936501E881E0544E
:10026000E0936601A4E1B0E00E94560118D017D0D7
:1002700016D0A0E285DF88EC90E00197F1F7A8E2C4
:1002800093DFA4E091DFA5E88FDFA6E08DDFA5DF97
:100290002196089589DFA3E0B0E00C945601A0E315
:1002A0006FDF88EC90E00197F1F70895109639F030
:1002B00080ED97E00197F1F7A8951197C9F7089598
:00000001FF
