:040000000C943F001D
:100004000C9400000C9400000C9400000C9400006C
:100014000C9400000C9400000C9400000C9400005C
:100024000C9400000C9400000C9400000C9400004C
:100034000C9400000C946C000C9400000C940000D0
:100044000C9400000C9400000C9400000C9400002C
:100054000000C0F9A4B0999282F8809040792430CD
:100064001912027800100100070054000A0062010E
:1000740056000A006C0160000000F894EE27ECBB07
:10008400F1E0FBBFEBBFE5BF8DE0A2E0BB27ED9342
:100094008A95E9F780E094E0A0E6ED930197E9F70B
:1000A400EAE6F0E085919591009761F0A591B5910C
:1000B40005901590BF01F00105900D920197E1F7AD
:1000C400FB01F0CFEFE5EDBFE4E0EEBFC0E6D1E029
:1000D4000C94DB008A93AA93BA93EA93FA93EFB74A
:1000E400EA93E0917601A0E6B1E0F0E0EE0FFF1FA5
:1000F400AE0FBF1FE4B1F5B1ED93FC93A09176016F
:10010400AF5FA0937601A13018F0E0E0E0937601B0
:10011400E0917601E7B98BE18A95F1F7369AE99196
:10012400EFBFF991E991B991A99189911895BA9381
:10013400AA930E94D601AC81BD817BD09F01AC8182
:10014400BD817CD080D0AAE087D0AAE0B0E00E9434
:100154006901AD9A0E94DD0126960895BA93AA9387
:100164000E94D40185D0AF01AE81BF8167D0EE83F8
:10017400FF837ED09F01AE81BF8160D0EE83FF8379
:1001840077D061D0A6E068D0A6E0B0E00E94690113
:10019400AD9AAE98A2E6B1E0A40FB51FEC91E8BB0E
:1001A400A6E0B0E00E946901AE9A0E94DB012896A5
:1001B4000895E0E0EABBEBBBEFEFE7BBE8BBE3EF9E
:1001C400E4BBE5BBE0E0E1BBE2BBE3BFE2BFECBF05
:1001D400EFBDEEBDEDBDECBDE7BDE6BDEBBDEABDDB
:1001E400E9BDE8BDE2BDE5BDE4BDE3BDE9BFE5BFF2
:1001F400E4BFEAB9E0E8E8B9E0E0E7B9EBEEE6B974
:10020400E0E0E0BFEDB9E6BF789480990BC0E1E08F
:10021400E7197E2E809906C0772011F42CD001C0F6
:100224003CD0F8CF772011F426D001C036D0EDCFE2
:10023400FFCFEAE0F0E00E94D1010895EAE0F0E0A7
:100244000E94990108958F01AC98ACE6B1E0A00F2B
:10025400B11FEC91E8BB0895B0E00E946901AC9A2B
:10026400AD98A2E6B1E0A20FB31FEC91E8BB0895EC
:10027400AE81BF81DECFA0916001B0916101E2E364
:100284000E949301DF01EFEFF3E00E9499012F0137
:10029400D2014DDFA898A99A0895E0916001F091E8
:1002A400610166277727A4EFB1E080E090E00E9427
:1002B4007301DF01CB01EFEFF3E060E070E00E9437
:1002C400AC012F01D2014ADFA89AA998089510968B
:1002D40039F080ED97E00197F1F7A8951197C9F7E8
:1002E40008957A9F702D6B9F700DF89F700DE99F94
:1002F400700D6A9F602D710DFB9F600D711DE89F4D
:10030400600D711D8827FA9FF02D610D781FEB9FFA
:10031400F00D611D781FEA9FE02DF10D681F781F15
:1003240008956E2F6A9FF0016B9FF00D08950024CD
:10033400112490E1AA0FBB1F001C111C0E1A1F0AE6
:1003440018F40E0E1F1E01C0A1609A9599F7FD01C5
:10035400D00108953F934F935F93002411244427C1
:10036400552730E2AA0FBB1F881F991F001C111CC0
:10037400441F551F0E1A1F0A460B570B28F40E0E66
:100384001F1E461F571F01C0A1603A9559F7FD0172
:10039400BC01D001CA015F914F913F910895C7DF1D
:1003A400FD0108955A934A933A932A931A930A9310
:1003B40008955D814C813B812A81198108810895CA
:00000001FF
