:0E0000000C943B000C9400000C9400000C9437
:10000E0000000C9400000C9400000C9400000C9462
:10001E0000000C9400000C9400000C9400000C9452
:10002E0000000C9400000C9400000C9468000C94DA
:10003E0000000C9400000C9400000C9400000C9432
:10004E0000000C940000C0F9A4B0999282F8809040
:10005E00407924301912027800100A00620154000F
:10006E000A006C015E000000F894EE27ECBBF1E094
:10007E00FBBFEBBFE5BF8DE0A2E0BB27ED938A95FA
:10008E00E9F780E094E0A0E6ED930197E9F7E8E662
:10009E00F0E085919591009761F0A591B59105904D
:1000AE001590BF01F00105900D920197E1F7FB014C
:1000BE00F0CFEFE5EDBFE4E0EEBFC0E6D1E00C948B
:1000CE00D7008A93AA93BA93EA93FA93EFB7EA9377
:1000DE00E0917601A0E6B1E0F0E0EE0FFF1FAE0F6B
:1000EE00BF1FE4B1F5B1ED93FC93A0917601AF5F24
:1000FE00A0937601A13018F0E0E0E0937601E09154
:10010E007601E7B98BE18A95F1F7369AE991EFBF5F
:10011E00F991E991B991A99189911895BA93AA93F8
:10012E000E945301AC81BD8173D09F01AC81BD8112
:10013E0074D078D0AAE07FD0AAE0B0E00E9431015E
:10014E00AD9A0E945A0126960895BA93AA930E94D8
:10015E0051017DD0AF01AE81BF815FD0EE83FF83B1
:10016E0076D09F01AE81BF8158D0EE83FF836FD0D2
:10017E0059D0A6E060D0A6E0B0E00E943101AD9A61
:10018E00AE98A2E6B1E0A40FB51FEC91E8BBA6E0D5
:10019E00B0E00E943101AE9A0E945801289608954F
:1001AE00E0E0EABBEBBBEFEFE7BBE8BBE0EFE4BBA5
:1001BE00E5BBE0E0E1BBE2BBE3BFE2BFECBFEFBDFE
:1001CE00EEBDEDBDECBDE7BDE6BDEBBDEABDE9BDE7
:1001DE00E8BDE2BDE5BDE4BDE3BDE9BFE5BFE4BFFB
:1001EE00EAB9E0E8E8B9E0E0E7B9EBEEE6B9E0E05D
:1001FE00E0BFEDB9E6BF7894809903C0AAE1B0E004
:10020E008DDF819903C0AAEDB3E09FDFF5CFFFCF5D
:10021E00EAE0F0E00E944E010895EAE0F0E00E946C
:10022E003B0108958F01AC98ACE6B1E0A00FB11F71
:10023E00EC91E8BB0895B0E00E943101AC9AAD9804
:10024E00A2E6B1E0A20FB31FEC91E8BB0895AE8118
:10025E00BF81DECF109639F080ED97E00197F1F770
:10026E00A8951197C9F708950024112490E1AA0FBB
:10027E00BB1F001C111C0E1A1F0A18F40E0E1F1E97
:10028E0001C0A1609A9599F7FD01D0010895ECDFA8
:10029E00FD0108955A934A933A932A931A930A9317
:1002AE0008955D814C813B812A81198108810895D1
:00000001FF
