:100000000C9444000C9400000C9400000C9400002C
:100010000C9400000C9400000C9400000C94000060
:100020000C9400000C9400000C9400000C94000050
:100030000C9400000C9400000C9400000C94000040
:100040000C9400000C9400000C9400000C94000030
:100050000C9400001027E80364000A00010000105F
:100060000001100001000000000048756D3A2000FA
:100070002500543A2000430080C0040004006600BC
:100080000200600178000000F894EE27ECBBF1E07C
:10009000FBBFEBBFE5BF8DE0A2E0BB27ED938A95E8
:1000A000E9F780E094E0A0E6ED930197E9F7EAE74D
:1000B000F0E085919591009761F0A591B59105903B
:1000C0001590BF01F00105900D920197E1F7FB013A
:1000D000F0CFEFE5EDBFE4E0EEBFC0E6D1E00C9479
:1000E0008E00BA93AA931A930A930A811B81D801AE
:1000F000EAE0F0E00E940004E05DAE2F0E941102F1
:10010000D801EAE0F0E00E9405048F01A02FA05D75
:100110000E9411021981088124960895E0E0EABB4B
:10012000EBBBE7BBE8BBEFEFE4BBE0E0E5BBE1BB6B
:10013000E2BBE3BFE2BFECBFEFBDEEBDEDBDECBD8A
:10014000E7BDE6BDEBBDEABDE9BDE8BDE2BDE5BD8D
:10015000E4BDE3BDE9BFE5BFE4BFEAB9E0E8E8B963
:10016000E0E0E0BFE6B9EDB9E6BFA0E10E943902E8
:10017000A1E0B0E00E94D102A0E0B0E00DD13F01CB
:10018000A0E0B0E0FED02F01E0E0EA93A0E00E9402
:10019000F801AAE6B0E00E942602D301A2DFA0E7A0
:1001A000B0E00E942602E0E0EA93A1E00E94F8019C
:1001B000A2E7B0E00E942602D20193DFAFED0E94D9
:1001C0001102A6E7B0E00E942602D2CFFFCFBA9379
:1001D000AA932A970E94260420E030E0FE0134967C
:1001E000FA93EA93E0E0EA93AAE0B0E00E946702A3
:1001F0000E9477020E947F020E948E02E095E12118
:10020000EBBB88EE93E00197F1F70E948E02E129A3
:10021000EBBB0E947702E095E121EABB8BE68A9571
:10022000F1F70E94960209F0A6C085ED8A95F1F7D4
:100230000E94960209F49FC085ED8A95F1F720E0AF
:1002400030E02530E0E03E070CF04AC00E94A402F6
:1002500000E010E00830E0E01E079CF5E0E0E883F5
:10026000E9830E94960241F40E94AB0224F0EFEF72
:10027000FFEF249682C0F5CF80E58A95F1F70E94C2
:10028000960271F0E7E0F0E0E01BF10BA1E0B0E0D6
:100290000E94DF03AA81BB81EA2BFB2BEA83FB834D
:1002A000E0E0E883E9830E94960241F00E94AB02FD
:1002B00024F0EFEFFFEF249660C0F5CF0F5F1F4FE4
:1002C000C9CFF901DE011896EE0FFF1FEA0FFB1FE1
:1002D000AA81BB81A083B18324962F5F3F4FB1CF0A
:1002E0000E9477020E947F02EE81FF81AC81BD8176
:1002F000EA0FFB1FA885B985EA0FFB1FAA85BB85FE
:10030000AE0FBF1FEC85FD85EA17FB07A1F524970B
:10031000F885E0E0AA85BB85EA2BFB2BEA83FB830B
:10032000FC85E0E0AE85BF85EA2BFB2BE883F983F3
:10033000E981E07861F0E881F981FF770E94B602F7
:10034000A0E0B0E080E89FEB0E94380304C0E881A1
:10035000F9810E94B602AC89BD890E942104EA811C
:10036000FB810E94B602AA89BB890E942104E0E0B9
:10037000F0E0249602C0EFEFFFEF0E942B0462969C
:100380000895BA93AA930E94A402EC81FD81FA9386
:10039000EA93DE01129609C0BA93AA930E94A402BE
:1003A000FE01FA93EA93AE81BF8111DF269608958C
:1003B000AA93E5B3EF70AE2FE881E07FEA2BE5BBAF
:1003C0008DE08A95F1F7A99A8DE08A95F1F7A998C1
:1003D0008DE08A95F1F779C0AA93A881E9DFE881D9
:1003E000E295E883A881E4DF85E88A95F1F76DC09E
:1003F000AA93E881F0E0E05AFE4FE081A981AE0FB8
:10040000EBDF9980888022960895A2E00E94C302C3
:10041000ACE0E2DFA1E00E94C302E0E08E2E9E2E5F
:100420000895AA93A881AA3011F09B1448F0E0E047
:10043000EA938394A82DDCDFA881AA3009F445C093
:100440009394A89AA881C8DFA8983FC0BA93AA93AA
:100450001A93E981FA813196E983FA833197E4911D
:100460001E2FE03019F0A12FDCDFF3CF1881239687
:100470000895AA93E4B3E06FE4BBA19AA09AA29A6C
:10048000A998A898AA98B880E881E058E0936201FA
:10049000E881E054E0936301A4E1B0E00E94D1025E
:1004A0000E94C9020E94C9020E94C902A0E280DF24
:1004B00088EC90E00197F1F7A8E28EDFA4E08CDFF2
:1004C000A5E88ADFA6E088DFA0DF21960895BA9329
:1004D000AA93B981A881109631F0FC81EB816A81E1
:1004E00061931197E9F7EB81FC81259608951AB283
:1004F000E0E0D899E1E0A1E00E94D7030895E12966
:10050000EABB1BB2E0E0D899E1E0A1E00E94D7038A
:10051000E129EBBBA4E6B0E00C94D1021BB2E0E011
:10052000D899E1E0A1E00E94D703089519B2E0E074
:10053000D899E1E0A1E0B0E00E94DF03A12DB0E096
:10054000EA23FB23309708952497E0E0E883E983CA
:10055000EA83EB830895E881F9813196E883F98392
:10056000A881B981A93CE0E0BE0708950E94E80394
:100570000E940A03DF01CB01E0E0F0E060E271E4F9
:100580000E94860308950E94EC01A3E0B0E00C9461
:10059000D102A0E30E94D80188EC90E00197F1F726
:1005A0000895109639F080ED97E00197F1F7A8953E
:1005B0001197C9F70895552342F4503811F4E0FF1C
:1005C00004C03196691F791F6BF050E8572711F46A
:1005D0005F933CC05F3F31F0660F000C5795679505
:1005E000752F08955F9300200AF03CC035C050E895
:1005F000192E1522880F991F9527550F879550E8BA
:10060000072E0522660F771F7527550F67950895EA
:10061000689401C0E894309760407040B1F00024C5
:1006200026F0772312F40094BAD0172E7EE1112021
:1006300032F07A95EE0FFF1F661F111CF9CFEF2FD6
:10064000F62F612D5F93C1DF5F910895EE27FF279D
:10065000662777275F910895EFEFFFEF6FE77FEF52
:100660005F910895EFEFFFEF6FE77FE75F910895E8
:100670005F93BDDF703851F3903841F30124089443
:10068000791F23F41CF300203AF3ECCF0F921F9351
:100690002F933F934F93112722279927689FA001FB
:1006A0008F9F302D410D591F6B9F300D411D591FDC
:1006B0008E9F27D0BF9F25D06A9F23D0BE9F1DD07D
:1006C000AF9F1BD0AE9F110D291F391F491F591F06
:1006D000E32FF42F652F522F4F913F912F911F91B0
:1006E0000F9066232AF0550FEE1FFF1F661F02C0F2
:1006F00073954BF260DF5F910895100D211D391F36
:1007000002C0200D311D491F591F08955F936FDFEF
:10071000703821F411200AF49FCFA4CF903809F447
:1007200095CF01240894970B1BF4D4F30020F3CF4A
:10073000792F1F932F933F934F9311241127222733
:1007400033274427552790E2AE17BF078607410796
:1007500030F0AE1BBF0B860B410B089401C0889490
:10076000551F221F331F111CAA1FBB1F881F441FA8
:100770009A9551F7F901612D4F913F912F911F915A
:10078000662332F0550FEE1FFF1F661F7A9543F266
:1007900012DF5F910895F195E195F0400895F0958D
:1007A00060957095E195FF4F6F4F7F4F0895EE2351
:1007B0000E2EEA2F19F0EE0F0A94E9F70895EE23B2
:1007C0000E2EFD0121F0EE0FFF1F0A94E1F70895B0
:1007D0006F2F660F660B762F08950024112490E189
:1007E000AA0FBB1F001C111C0E1A1F0A18F40E0EB4
:1007F0001F1E01C0A1609A9599F7FD01D0010895CF
:1008000012D0EBDF0EF4C7DF0895E894B7FF04C001
:10081000A095B09511966894F7FDBDDFDEDFFD0170
:100820000EF4B9DF0895E894F7FF02C0B4DF6894CE
:10083000B7FF06C0A095B095119600F8039400FA92
:100840000895ED93FD936D937C9308953A932A93C5
:100850001A930A9308953B812A811981088108958A
:00000001FF
